:100000000C945E000C9486000C9486000C94860080
:100010000C9486000C9486000C9486000C94860048
:100020000C9486000C9486000C9486000C94740149
:100030000C9486000C9486000C9486000C94860028
:100040000C94E6030C9486000C9486000C948600B5
:100050000C9486000C9486000C9486000C94860008
:100060000C9486000C94860000000007000201003A
:100070000003040600000000000000000102040864
:100080001020408001020408102001020408102002
:10009000040404040404040402020202020203032E
:1000A0000303030300000000250028002B000000CC
:1000B0000000240027002A00A500DE0311241FBE33
:1000C000CFEFD8E0DEBFCDBF11E0A0E0B1E0E6EFBA
:1000D000FAE002C005900D92A230B107D9F711E005
:1000E000A2E0B1E001C01D92AD33B107E1F710E02D
:1000F000CCEBD0E004C02297FE010E946905C83B0A
:10010000D107C9F70E9467010C9479050C9400008F
:100110000C94660382E00E94AD00893592402CF079
:1001200060E070E0CB010C94C60384E00E94AD0057
:10013000893592402CF060E070E0CB010C94AE0366
:1001400060E070E0CB010C94960382E091E00E94A5
:10015000320285E091E00C9432028E3008F08E502D
:1001600087702091000140E4249F90011124822B8C
:1001700080937C0080917A00806480937A008091E3
:100180007A0086FDFCCF2091780030917900932F82
:1001900080E0AC01422B9A01C9010895833069F0D7
:1001A00028F48130A1F0823011F514C08630B1F00E
:1001B0008730C1F08430D9F404C0809180008F77FB
:1001C00003C0809180008F7D80938000089584B566
:1001D0008F7702C084B58F7D84BD08958091B00073
:1001E0008F7703C08091B0008F7D8093B000089519
:1001F000CF93DF9390E0FC01E458FF4F4491FC0162
:10020000E057FF4F8491882341F190E0880F991FB8
:10021000FC01E255FF4F25913491D9018C559F4F38
:10022000FC0185919491C82FD92F9FB7F8948C9198
:10023000611106C0409584238C938881842308C073
:10024000623041F4242F209582238C938881842B63
:10025000888302C0842B8C939FBFDF91CF91089538
:100260000F931F93CF93DF931F92CDB7DEB7282F45
:1002700030E0F901E859FF4F8491F901E458FF4F4C
:100280001491F901E057FF4F04910023D1F0882326
:1002900021F069830E94CE006981E02FF0E0EE0F2B
:1002A000FF1FEC55FF4F85919491DC019FB7F894A7
:1002B0008C91611103C01095812301C0812B8C9317
:1002C0009FBF0F90DF91CF911F910F9108950E94D2
:1002D00080040E948800C0E0D0E00E948A0020973D
:1002E000E1F30E940000F9CF1F920F920FB60F9218
:1002F00011242F933F934F935F936F937F938F932B
:100300009F93AF93BF93EF93FF938091090187FF72
:1003100005C010928500109284001AC02091090136
:10032000332727FD30958091080190E02817390781
:100330007CF480910901992787FD9095FC01EE0FCF
:10034000FF1FE80FF91FE65FFE4F808186FD37C073
:10035000809109018F5F8093090120910901332762
:1003600027FD30958091080190E028173907CCF5DA
:10037000809109018C30F4F134C0809109019927F2
:1003800087FD9095FC01EE0FFF1FE80FF91FE65F58
:10039000FE4F808161E08F730E94300152C080E483
:1003A0009CE905C08091840090918500049690930B
:1003B0008900809388008FEF8093090142C080916B
:1003C0000901992787FD9095FC01EE0FFF1FE80FAB
:1003D000F91FE65FFE4F808160E08F730E9430015D
:1003E000B7CF8091840090918500049680349C4919
:1003F000B0F2D8CF809184009091850020910901BE
:10040000332727FD3095F901EE0FFF1FE20FF31F91
:10041000E65FFE4F21813281820F931F9093890006
:100420008093880080910901992787FD9095FC01B0
:10043000EE0FFF1FE80FF91FE65FFE4F808186FD7C
:100440009CCFFF91EF91BF91AF919F918F917F9141
:100450006F915F914F913F912F910F900FBE0F9031
:100460001F901895209108012C30A0F4FC012083E6
:10047000822F8F5F80930801822F90E0FC01EE0FA6
:10048000FF1FE80FF91FE65FFE4F88EB9BE09283AA
:10049000818308952FEFFC0120830895DF92EF926E
:1004A000FF920F931F93CF93DF93EC01D62E7A0127
:1004B000890188818C3008F065C061E08D2D0E9433
:1004C000F8008881A82FB0E0FD01EE0FFF1FEA0FB2
:1004D000FB1FE65FFE4F2D2D2F739081907C922B9A
:1004E000908360E272E06E197F0977FF02C06D5F52
:1004F0007F4F7595679575956795698340E659E0D7
:10050000401B510B57FF02C04D5F5F4F55954795FC
:10051000559547954A832CE0622F0E941205289F2B
:10052000B001112420E030E0A901460F571FFA0165
:10053000EE0FFF1FE40FF51FE65FFE4F908196FD63
:1005400015C02F5F3F4F2C30310571F71DC0109241
:10055000800082E0809381001092850010928400D8
:10056000B19A80916F00826080936F00888190E0E3
:10057000FC01EE0FFF1FE80FF91FE65FFE4F8081C1
:1005800080648083888103C0882309F3EFCFDF91E3
:10059000CF911F910F91FF90EF90DF90089520E68B
:1005A00039E040E252E00C944E02FC0180818C3034
:1005B00070F5918128E830E0291B310997FD3395CA
:1005C000220F331F220F331F621773077CF09281B3
:1005D00028E532E0291B310997FD3395220F331F9F
:1005E000220F331F621773070CF49B014FB7F89467
:1005F00090E0FC01EE0FFF1FE80FF91FE65FFE4FD2
:1006000022503109220F331F328321834FBF0895B7
:10061000AF92BF92CF92DF92EF92FF920F931F9310
:10062000CF93DF93EC01603282E078070CF041C099
:1006300077FD04C0653B710524F405C060E070E0FF
:1006400002C064EB70E0298188E890E0821B910988
:1006500027FD9395880F991F880F991F5C01CC2463
:10066000B7FCC094DC2C882777FD8095982F2A81D1
:1006700048E552E0421B510927FD5395440F551F91
:10068000440F551F8A01222717FD2095322F3F93D3
:100690002F931F930F9314EBE12EF12C00E010E049
:1006A00020E030E0A9010E94BB040F900F900F9052
:1006B0000F90CE01DF91CF911F910F91FF90EF909E
:1006C000DF90CF90BF90AF900C94D50266E070E0C1
:1006D0008EE291E00E94CF0265E070E081E391E05C
:1006E0000C94CF0264EB70E081E391E00E94080378
:1006F00060E070E08EE291E00C94080364EB70E03F
:1007000081E391E00E94080366E570E08EE291E0EB
:100710000C94080360E070E08EE291E00E94080310
:100720006DE570E081E391E00C940803CF93DF93D3
:1007300000D000D0CDB7DEB769837A838B839C83EA
:100740000E94720369817A818B819C810F900F9046
:100750000F900F90DF91CF910C945A04CF93DF93B9
:1007600000D000D0CDB7DEB769837A838B839C83BA
:100770000E947E0369817A818B819C810F900F900A
:100780000F900F90DF91CF910C945A04CF93DF9389
:1007900000D000D0CDB7DEB769837A838B839C838A
:1007A0000E948A0369817A818B819C810F900F90CE
:1007B0000F900F90DF91CF910C945A048EE291E04C
:1007C0000E94320281E391E00C9432021F920F9258
:1007D0000FB60F9211242F933F938F939F93AF9354
:1007E000BF938091340190913501A0913601B09171
:1007F000370130913C01232F2D5F2D3720F40196D6
:10080000A11DB11D05C0232F2A570296A11DB11DA0
:1008100020933C018093340190933501A0933601DD
:10082000B09337018091380190913901A0913A013C
:10083000B0913B010196A11DB11D809338019093A9
:100840003901A0933A01B0933B01BF91AF919F91C1
:100850008F913F912F910F900FBE0F901F90189581
:100860000F931F939FB7F8940091380110913901AD
:1008700020913A0130913B0186B5A89B06C08F3F7D
:1008800021F00F5F1F4F2F4F3F4F9FBF322F212F60
:10089000102F0027080F111D211D311D42E0000FF0
:1008A000111F221F331F4A95D1F7B801C9011F91AB
:1008B0000F910895CF92DF92EF92FF92CF93DF9343
:1008C0006B017C010E943004EB010EC00E943004D9
:1008D0006C1B7D0B683E734038F081E0C81AD1086C
:1008E000E108F108C851DC4FC114D104E104F1045E
:1008F00069F7DF91CF91FF90EF90DF90CF9008954F
:10090000789484B5826084BD84B5816084BD85B5EA
:10091000826085BD85B5816085BDEEE6F0E08081B1
:1009200081608083E1E8F0E01082808182608083D2
:10093000808181608083E0E8F0E080818160808355
:10094000E1EBF0E0808184608083E0EBF0E0808187
:1009500081608083EAE7F0E0808184608083808129
:1009600082608083808181608083808180688083D1
:100970001092C10008954F925F926F927F92AF9252
:10098000BF92CF92DF92EF92FF920F931F93CF937C
:10099000DF93CDB7DEB729013A01621B730B840BDD
:1009A000950B29893A894B895C892A193B094C099D
:1009B0005D09298B3A8B4B8B5C8B9B01AC01698960
:1009C0007A898B899C890E940205E418F50806093A
:1009D0001709A80197010E941E052A0D3B1D4C1DF9
:1009E0005D1DB901CA01DF91CF911F910F91FF9059
:1009F000EF90DF90CF90BF90AF907F906F905F901F
:100A00004F900895DB018F939F930E943A05BF9109
:100A1000AF91A29F800D911DA39F900DB29F900D4D
:100A200011240895991B79E004C0991F961708F0C6
:100A3000961B881F7A95C9F780950895052E97FB18
:100A400016F4009407D057FD0DD00E94450507FC11
:100A500009D07EF490958095709561957F4F8F4F6A
:100A60009F4F089550954095309521953F4F4F4F9A
:100A70005F4F08950E946D05A59F900DB49F900D46
:100A8000A49F800D911D11240895A1E21A2EAA1B86
:100A9000BB1BFD010DC0AA1FBB1FEE1FFF1FA2172E
:100AA000B307E407F50720F0A21BB30BE40BF50B2B
:100AB000661F771F881F991F1A9469F760957095B4
:100AC000809590959B01AC01BD01CF010895EE0F7B
:100AD000FF1F0590F491E02D0994A29FB001B39FF0
:100AE000C001A39F01D0B29F700D811D1124911DE3
:060AF0000895F894FFCF09
:020AF6000100FD
:00000001FF
