:100000000C945E000C9486000C9486000C94860080
:100010000C9486000C9486000C9486000C94860048
:100020000C9486000C9486000C9486000C942E028E
:100030000C9486000C9486000C9486000C94860028
:100040000C949E000C9486000C9486000C94860000
:100050000C9486000C9486000C9486000C94860008
:100060000C9486000C94860000000007000201003A
:100070000003040600000000000000000102040864
:100080001020408001020408102001020408102002
:10009000040404040404040402020202020203032E
:1000A0000303030300000000250028002B000000CC
:1000B0000000240027002A009600460411241FBED9
:1000C000CFEFD8E0DEBFCDBF11E0A0E0B1E0EEE2BF
:1000D000FAE002C005900D92A630B107D9F711E001
:1000E000A6E0B1E001C01D92A134B107E1F710E034
:1000F000CCEBD0E004C02297FE010E941105C83B62
:10010000D107C9F70E9421020C9495040C940000B9
:100110000E9422040C942E0481E00E946C010E9433
:100120003A0460E070E0CB010C940B0189E091E0AF
:100130000E94EA0286E091E00C94EA021F920F927C
:100140000FB60F9211242F933F938F939F93AF93EA
:10015000BF9380910D0190910E01A0910F01B0917C
:10016000100130910C0123E0230F2D3720F401966C
:10017000A11DB11D05C026E8230F0296A11DB11DCA
:1001800020930C0180930D0190930E01A0930F0119
:10019000B09310018091110190911201A09113016F
:1001A000B09114010196A11DB11D8093110190938E
:1001B0001201A0931301B0931401BF91AF919F91CD
:1001C0008F913F912F910F900FBE0F901F90189518
:1001D0003FB7F8948091110190911201A091130101
:1001E000B091140126B5A89B05C02F3F19F00196C8
:1001F000A11DB11D3FBF6627782F892F9A2F620F4F
:10020000711D811D911D42E0660F771F881F991F88
:100210004A95D1F70895CF92DF92EF92FF92CF9354
:10022000DF936B017C010E94E800EB01C114D10453
:10023000E104F10479F00E94E8006C1B7D0B683E3C
:100240007340A0F381E0C81AD108E108F108C85151
:10025000DC4FECCFDF91CF91FF90EF90DF90CF900C
:100260000895789484B5826084BD84B5816084BD2E
:1002700085B5826085BD85B5816085BDEEE6F0E01F
:10028000808181608083E1E8F0E01082808182607B
:100290008083808181608083E0E8F0E080818160FC
:1002A0008083E1EBF0E0808184608083E0EBF0E02C
:1002B000808181608083EAE7F0E0808184608083D0
:1002C000808182608083808181608083808180687A
:1002D00080831092C10008958E3008F08E50877090
:1002E0002091040190E4299F90011124822B809396
:1002F0007C0080917A00806480937A0080917A00FB
:1003000086FDFCCF809178002091790090E0922BBF
:100310000895833081F028F4813099F08230A1F083
:1003200008958630A9F08730B9F08430D1F48091F7
:1003300080008F7D03C0809180008F778093800044
:10034000089584B58F7702C084B58F7D84BD0895EC
:100350008091B0008F7703C08091B0008F7D809333
:10036000B0000895CF93DF9390E0FC01E458FF4F75
:100370002491FC01E057FF4F8491882349F190E0DC
:10038000880F991FFC01E255FF4FA591B4918C5540
:100390009F4FFC01C591D4919FB7611108C0F8949B
:1003A0008C91209582238C93888182230AC06230AD
:1003B00051F4F8948C91322F309583238C9388815B
:1003C000822B888304C0F8948C91822B8C939FBFDE
:1003D000DF91CF9108950F931F93CF93DF931F92D7
:1003E000CDB7DEB7282F30E0F901E859FF4F8491EF
:1003F000F901E458FF4F1491F901E057FF4F0491C0
:100400000023C9F0882321F069830E948901698152
:10041000E02FF0E0EE0FFF1FEC55FF4FA591B491D8
:100420009FB7F8948C91611103C01095812301C08E
:10043000812B8C939FBF0F90DF91CF911F910F91D4
:1004400008950E9431010E948800C0E0D0E00E941F
:100450008C002097E1F30E940000F9CF1F920F92C9
:100460000FB60F9211242F933F934F935F936F9387
:100470007F938F939F93AF93BF93EF93FF9380915D
:10048000160187FF05C010928500109284001AC0E3
:1004900020911601332727FD30958091150190E0BA
:1004A000281739077CF480911601992787FD9095CC
:1004B000FC01EE0FFF1FE80FF91FE95EFE4F808180
:1004C00086FD15C0809116018F5F809316012091E3
:1004D0001601332727FD30958091150190E02817EC
:1004E0003907BCF4809116018C305CF112C0809108
:1004F0001601992787FD9095FC01EE0FFF1FE80F6D
:10050000F91FE95EFE4F808160E08F730E94EB016E
:10051000D9CF8091840090918500049680349C49C5
:1005200018F480E49CE905C08091840090918500D6
:10053000049690938900809388008FEF8093160132
:1005400038C0809184009091850020911601332756
:1005500027FD3095F901EE0FFF1FE20FF31FE95E53
:10056000FE4F21813281820F931F909389008093E7
:10057000880080911601992787FD9095FC01EE0F68
:10058000FF1FE80FF91FE95EFE4F808186FF11C053
:1005900080911601992787FD9095FC01EE0FFF1FB2
:1005A000E80FF91FE95EFE4F808161E08F730E94C2
:1005B000EB01FF91EF91BF91AF919F918F917F914F
:1005C0006F915F914F913F912F910F900FBE0F90C0
:1005D0001F901895209115012C30A0F431E0320FB6
:1005E00030931501FC012083822F90E0FC01EE0F77
:1005F000FF1FE80FF91FE95EFE4F88EB9BE0928337
:10060000818308952FEFFC0120830895DF92EF92FC
:10061000FF920F931F93CF93DF93EC01D62E7A01B5
:10062000890188818C3008F066C061E08D2D0E94C0
:10063000B2018881A82FB0E0FD01EE0FFF1FEA0F85
:10064000FB1FE95EFE4F2D2D2F739081907C922B26
:10065000908360E272E06E197F0977FF02C06D5FE0
:100660007F4F7595679575956795698340E659E065
:10067000401B510B57FF02C04D5F5F4F559547958B
:10068000559547954A836CE00E94B3049CE0899F8E
:10069000B001112420E030E0A901460F571FFA01F4
:1006A000EE0FFF1FE40FF51FE95EFE4F908196FDF0
:1006B00016C02F5F3F4F2C30310571F781110FC0ED
:1006C0001092800082E08093810010928500109249
:1006D0008400B19A80916F00826080936F0088815E
:1006E00090E0FC01EE0FFF1FE80FF91FE95EFE4FDF
:1006F0008081806480838881DF91CF911F910F91E9
:10070000FF90EF90DF90089520E639E040E252E05C
:100710000C940603FC0180818C3070F5918128E8EF
:1007200030E0291B310997FD3395220F331F220F2B
:10073000331F621773077CF0928128E532E0291B92
:10074000310997FD3395220F331F220F331F621794
:1007500073070CF49B014FB7F89490E0FC01EE0F87
:10076000FF1FE80FF91FE95EFE4F22503109220FEB
:10077000331F328321834FBF08954F925F926F9250
:100780007F92AF92BF92CF92DF92EF92FF920F9340
:100790001F93CF93DF93EC01603282E078070CF077
:1007A00040C077FD06C0653B71052CF064EB70E03E
:1007B00002C060E070E0898128E830E0281B310940
:1007C00087FD3395220F331F220F331F5901CC248D
:1007D000B7FCC094DC2C882777FD8095982F2A8160
:1007E00048E552E0421B510927FD5395440F551F20
:1007F000440F551F2A01662457FC6094762C7F9283
:100800006F925F924F9214EBE12EF12C00E010E01A
:1008100020E030E0A9010E944E040F900F900F904D
:100820000F90CE01DF91CF911F910F91FF90EF902C
:10083000DF90CF90BF90AF907F906F905F904F9080
:100840000C948A0366E070E08EE391E00E948403DA
:1008500065E070E08BE391E00C9484036EE570E05A
:100860008EE391E00E94BD036EE570E08BE391E0C2
:100870000C94BD0360E070E08EE391E00E94BD0344
:1008800064EB70E08BE391E00C94BD038EE391E0A8
:100890000E94EA028BE391E00C94EA024F925F928D
:1008A0006F927F92AF92BF92CF92DF92EF92FF92C0
:1008B0000F931F93CF93DF93CDB7DEB729013A0192
:1008C000621B730B840B950B29893A894B895C89D0
:1008D0002A193B094C095D09298B3A8B4B8B5C8BA0
:1008E0009B01AC0169897A898B899C890E94A30448
:1008F000E418F50806091709A80197010E94BF042A
:100900002A0D3B1D4C1D5D1DCA01B901DF91CF9120
:100910001F910F91FF90EF90DF90CF90BF90AF901D
:100920007F906F905F904F900895F8940C94150508
:100930000E94DE04A59F900DB49F900DA49F800D92
:10094000911D11240895DB018F939F930E949804B9
:10095000BF91AF91A29F800D911DA39F900DB29F5B
:10096000900D11240895991B79E004C0991F9617E2
:1009700008F0961B881F7A95C9F780950895052E73
:1009800097FB1EF400940E94D60457FD07D00E94E6
:10099000ED0407FC03D04EF40C94D604509540951A
:1009A000309521953F4F4F4F5F4F0895909580951B
:1009B000709561957F4F8F4F9F4F0895A29FB00113
:1009C000B39FC001A39F700D811D1124911DB29F83
:1009D000700D811D1124911D0895A1E21A2EAA1BEC
:1009E000BB1BFD010DC0AA1FBB1FEE1FFF1FA217DF
:1009F000B307E407F50720F0A21BB30BE40BF50BDC
:100A0000661F771F881F991F1A9469F76095709564
:100A1000809590959B01AC01BD01CF010895EE0F2B
:0E0A2000FF1F0590F491E02D0994F894FFCF8C
:060A2E00010000000100C0
:00000001FF
